{
  "address": "0xEcd7E36Bf21083B28F10dBEAE7B7D1FdfddA0Ec7",
  "abi": [
    {
      "inputs": [],
      "stateMutability": "nonpayable",
      "type": "constructor"
    },
    {
      "anonymous": false,
      "inputs": [
        {
          "indexed": true,
          "internalType": "address",
          "name": "owner",
          "type": "address"
        },
        {
          "indexed": true,
          "internalType": "address",
          "name": "approved",
          "type": "address"
        },
        {
          "indexed": true,
          "internalType": "uint256",
          "name": "tokenId",
          "type": "uint256"
        }
      ],
      "name": "Approval",
      "type": "event"
    },
    {
      "anonymous": false,
      "inputs": [
        {
          "indexed": true,
          "internalType": "address",
          "name": "owner",
          "type": "address"
        },
        {
          "indexed": true,
          "internalType": "address",
          "name": "operator",
          "type": "address"
        },
        {
          "indexed": false,
          "internalType": "bool",
          "name": "approved",
          "type": "bool"
        }
      ],
      "name": "ApprovalForAll",
      "type": "event"
    },
    {
      "anonymous": false,
      "inputs": [
        {
          "indexed": true,
          "internalType": "address",
          "name": "from",
          "type": "address"
        },
        {
          "indexed": true,
          "internalType": "address",
          "name": "to",
          "type": "address"
        },
        {
          "indexed": true,
          "internalType": "uint256",
          "name": "tokenId",
          "type": "uint256"
        }
      ],
      "name": "Transfer",
      "type": "event"
    },
    {
      "inputs": [
        {
          "internalType": "address",
          "name": "to",
          "type": "address"
        },
        {
          "internalType": "uint256",
          "name": "tokenId",
          "type": "uint256"
        }
      ],
      "name": "approve",
      "outputs": [],
      "stateMutability": "nonpayable",
      "type": "function"
    },
    {
      "inputs": [
        {
          "internalType": "address",
          "name": "owner",
          "type": "address"
        }
      ],
      "name": "balanceOf",
      "outputs": [
        {
          "internalType": "uint256",
          "name": "",
          "type": "uint256"
        }
      ],
      "stateMutability": "view",
      "type": "function"
    },
    {
      "inputs": [
        {
          "internalType": "uint256",
          "name": "tokenId",
          "type": "uint256"
        }
      ],
      "name": "burn",
      "outputs": [],
      "stateMutability": "nonpayable",
      "type": "function"
    },
    {
      "inputs": [
        {
          "internalType": "address",
          "name": "to",
          "type": "address"
        },
        {
          "internalType": "string",
          "name": "uri",
          "type": "string"
        }
      ],
      "name": "certify",
      "outputs": [
        {
          "internalType": "uint256",
          "name": "tokenId",
          "type": "uint256"
        }
      ],
      "stateMutability": "nonpayable",
      "type": "function"
    },
    {
      "inputs": [
        {
          "internalType": "uint256",
          "name": "tokenId",
          "type": "uint256"
        }
      ],
      "name": "getApproved",
      "outputs": [
        {
          "internalType": "address",
          "name": "",
          "type": "address"
        }
      ],
      "stateMutability": "view",
      "type": "function"
    },
    {
      "inputs": [
        {
          "internalType": "address",
          "name": "owner",
          "type": "address"
        },
        {
          "internalType": "address",
          "name": "operator",
          "type": "address"
        }
      ],
      "name": "isApprovedForAll",
      "outputs": [
        {
          "internalType": "bool",
          "name": "",
          "type": "bool"
        }
      ],
      "stateMutability": "view",
      "type": "function"
    },
    {
      "inputs": [],
      "name": "name",
      "outputs": [
        {
          "internalType": "string",
          "name": "",
          "type": "string"
        }
      ],
      "stateMutability": "view",
      "type": "function"
    },
    {
      "inputs": [
        {
          "internalType": "uint256",
          "name": "tokenId",
          "type": "uint256"
        }
      ],
      "name": "ownerOf",
      "outputs": [
        {
          "internalType": "address",
          "name": "",
          "type": "address"
        }
      ],
      "stateMutability": "view",
      "type": "function"
    },
    {
      "inputs": [
        {
          "internalType": "address",
          "name": "to",
          "type": "address"
        },
        {
          "internalType": "string",
          "name": "uri",
          "type": "string"
        }
      ],
      "name": "safeMint",
      "outputs": [],
      "stateMutability": "nonpayable",
      "type": "function"
    },
    {
      "inputs": [
        {
          "internalType": "address",
          "name": "from",
          "type": "address"
        },
        {
          "internalType": "address",
          "name": "to",
          "type": "address"
        },
        {
          "internalType": "uint256",
          "name": "tokenId",
          "type": "uint256"
        }
      ],
      "name": "safeTransferFrom",
      "outputs": [],
      "stateMutability": "nonpayable",
      "type": "function"
    },
    {
      "inputs": [
        {
          "internalType": "address",
          "name": "from",
          "type": "address"
        },
        {
          "internalType": "address",
          "name": "to",
          "type": "address"
        },
        {
          "internalType": "uint256",
          "name": "tokenId",
          "type": "uint256"
        },
        {
          "internalType": "bytes",
          "name": "data",
          "type": "bytes"
        }
      ],
      "name": "safeTransferFrom",
      "outputs": [],
      "stateMutability": "nonpayable",
      "type": "function"
    },
    {
      "inputs": [
        {
          "internalType": "address",
          "name": "operator",
          "type": "address"
        },
        {
          "internalType": "bool",
          "name": "approved",
          "type": "bool"
        }
      ],
      "name": "setApprovalForAll",
      "outputs": [],
      "stateMutability": "nonpayable",
      "type": "function"
    },
    {
      "inputs": [
        {
          "internalType": "bytes4",
          "name": "interfaceId",
          "type": "bytes4"
        }
      ],
      "name": "supportsInterface",
      "outputs": [
        {
          "internalType": "bool",
          "name": "",
          "type": "bool"
        }
      ],
      "stateMutability": "view",
      "type": "function"
    },
    {
      "inputs": [],
      "name": "symbol",
      "outputs": [
        {
          "internalType": "string",
          "name": "",
          "type": "string"
        }
      ],
      "stateMutability": "view",
      "type": "function"
    },
    {
      "inputs": [
        {
          "internalType": "uint256",
          "name": "index",
          "type": "uint256"
        }
      ],
      "name": "tokenByIndex",
      "outputs": [
        {
          "internalType": "uint256",
          "name": "",
          "type": "uint256"
        }
      ],
      "stateMutability": "view",
      "type": "function"
    },
    {
      "inputs": [
        {
          "internalType": "address",
          "name": "owner",
          "type": "address"
        },
        {
          "internalType": "uint256",
          "name": "index",
          "type": "uint256"
        }
      ],
      "name": "tokenOfOwnerByIndex",
      "outputs": [
        {
          "internalType": "uint256",
          "name": "",
          "type": "uint256"
        }
      ],
      "stateMutability": "view",
      "type": "function"
    },
    {
      "inputs": [
        {
          "internalType": "uint256",
          "name": "tokenId",
          "type": "uint256"
        }
      ],
      "name": "tokenURI",
      "outputs": [
        {
          "internalType": "string",
          "name": "",
          "type": "string"
        }
      ],
      "stateMutability": "view",
      "type": "function"
    },
    {
      "inputs": [],
      "name": "totalSupply",
      "outputs": [
        {
          "internalType": "uint256",
          "name": "",
          "type": "uint256"
        }
      ],
      "stateMutability": "view",
      "type": "function"
    },
    {
      "inputs": [
        {
          "internalType": "address",
          "name": "from",
          "type": "address"
        },
        {
          "internalType": "address",
          "name": "to",
          "type": "address"
        },
        {
          "internalType": "uint256",
          "name": "tokenId",
          "type": "uint256"
        }
      ],
      "name": "transferFrom",
      "outputs": [],
      "stateMutability": "nonpayable",
      "type": "function"
    }
  ],
  "transactionHash": "0x0c218f27dc853d816f4d6a57e23b976cbb1b83e1cdb9f9f504d12a72d1fcea0f",
  "args": [],
  "numDeployments": 1,
  "solcInputHash": "422f90278ea90dc4900b52f44fb51cc9",
  "bytecode": "0x60806040523480156200001157600080fd5b506040518060400160405280600b81526020017f43657274696669636174650000000000000000000000000000000000000000008152506040518060400160405280600381526020017f434552000000000000000000000000000000000000000000000000000000000081525081600090816200008f919062000324565b508060019081620000a1919062000324565b5050506200040b565b600081519050919050565b7f4e487b7100000000000000000000000000000000000000000000000000000000600052604160045260246000fd5b7f4e487b7100000000000000000000000000000000000000000000000000000000600052602260045260246000fd5b600060028204905060018216806200012c57607f821691505b602082108103620001425762000141620000e4565b5b50919050565b60008190508160005260206000209050919050565b60006020601f8301049050919050565b600082821b905092915050565b600060088302620001ac7fffffffffffffffffffffffffffffffffffffffffffffffffffffffffffffffff826200016d565b620001b886836200016d565b95508019841693508086168417925050509392505050565b6000819050919050565b6000819050919050565b600062000205620001ff620001f984620001d0565b620001da565b620001d0565b9050919050565b6000819050919050565b6200022183620001e4565b6200023962000230826200020c565b8484546200017a565b825550505050565b600090565b6200025062000241565b6200025d81848462000216565b505050565b5b8181101562000285576200027960008262000246565b60018101905062000263565b5050565b601f821115620002d4576200029e8162000148565b620002a9846200015d565b81016020851015620002b9578190505b620002d1620002c8856200015d565b83018262000262565b50505b505050565b600082821c905092915050565b6000620002f960001984600802620002d9565b1980831691505092915050565b6000620003148383620002e6565b9150826002028217905092915050565b6200032f82620000aa565b67ffffffffffffffff8111156200034b576200034a620000b5565b5b62000357825462000113565b6200036482828562000289565b600060209050601f8311600181146200039c576000841562000387578287015190505b62000393858262000306565b86555062000403565b601f198416620003ac8662000148565b60005b82811015620003d657848901518255600182019150602085019450602081019050620003af565b86831015620003f65784890151620003f2601f891682620002e6565b8355505b6001600288020188555050505b505050505050565b61382d806200041b6000396000f3fe608060405234801561001057600080fd5b50600436106101215760003560e01c806342966c68116100ad578063a22cb46511610071578063a22cb46514610340578063b88d4fde1461035c578063c87b56dd14610378578063d204c45e146103a8578063e985e9c5146103c457610121565b806342966c68146102765780634f6ccce7146102925780636352211e146102c257806370a08231146102f257806395d89b411461032257610121565b806318160ddd116100f457806318160ddd146101c05780631d2a8be5146101de57806323b872dd1461020e5780632f745c591461022a57806342842e0e1461025a57610121565b806301ffc9a71461012657806306fdde0314610156578063081812fc14610174578063095ea7b3146101a4575b600080fd5b610140600480360381019061013b9190612471565b6103f4565b60405161014d91906124b9565b60405180910390f35b61015e610406565b60405161016b9190612564565b60405180910390f35b61018e600480360381019061018991906125bc565b610498565b60405161019b919061262a565b60405180910390f35b6101be60048036038101906101b99190612671565b6104de565b005b6101c86105f5565b6040516101d591906126c0565b60405180910390f35b6101f860048036038101906101f39190612810565b610602565b60405161020591906126c0565b60405180910390f35b6102286004803603810190610223919061286c565b610620565b005b610244600480360381019061023f9190612671565b610680565b60405161025191906126c0565b60405180910390f35b610274600480360381019061026f919061286c565b610725565b005b610290600480360381019061028b91906125bc565b610745565b005b6102ac60048036038101906102a791906125bc565b6107a1565b6040516102b991906126c0565b60405180910390f35b6102dc60048036038101906102d791906125bc565b610812565b6040516102e9919061262a565b60405180910390f35b61030c600480360381019061030791906128bf565b610898565b60405161031991906126c0565b60405180910390f35b61032a61094f565b6040516103379190612564565b60405180910390f35b61035a60048036038101906103559190612918565b6109e1565b005b610376600480360381019061037191906129f9565b6109f7565b005b610392600480360381019061038d91906125bc565b610a59565b60405161039f9190612564565b60405180910390f35b6103c260048036038101906103bd9190612810565b610a6b565b005b6103de60048036038101906103d99190612a7c565b610a9c565b6040516103eb91906124b9565b60405180910390f35b60006103ff82610b30565b9050919050565b60606000805461041590612aeb565b80601f016020809104026020016040519081016040528092919081815260200182805461044190612aeb565b801561048e5780601f106104635761010080835404028352916020019161048e565b820191906000526020600020905b81548152906001019060200180831161047157829003601f168201915b5050505050905090565b60006104a382610baa565b6004600083815260200190815260200160002060009054906101000a900473ffffffffffffffffffffffffffffffffffffffff169050919050565b60006104e982610812565b90508073ffffffffffffffffffffffffffffffffffffffff168373ffffffffffffffffffffffffffffffffffffffff1603610559576040517f08c379a000000000000000000000000000000000000000000000000000000000815260040161055090612b8e565b60405180910390fd5b8073ffffffffffffffffffffffffffffffffffffffff16610578610bf5565b73ffffffffffffffffffffffffffffffffffffffff1614806105a757506105a6816105a1610bf5565b610a9c565b5b6105e6576040517f08c379a00000000000000000000000000000000000000000000000000000000081526004016105dd90612c20565b60405180910390fd5b6105f08383610bfd565b505050565b6000600880549050905090565b600061060e8383610a6b565b610618600b610cb6565b905092915050565b61063161062b610bf5565b82610cc4565b610670576040517f08c379a000000000000000000000000000000000000000000000000000000000815260040161066790612cb2565b60405180910390fd5b61067b838383610d59565b505050565b600061068b83610898565b82106106cc576040517f08c379a00000000000000000000000000000000000000000000000000000000081526004016106c390612d44565b60405180910390fd5b600660008473ffffffffffffffffffffffffffffffffffffffff1673ffffffffffffffffffffffffffffffffffffffff168152602001908152602001600020600083815260200190815260200160002054905092915050565b610740838383604051806020016040528060008152506109f7565b505050565b610756610750610bf5565b82610cc4565b610795576040517f08c379a000000000000000000000000000000000000000000000000000000000815260040161078c90612cb2565b60405180910390fd5b61079e81611052565b50565b60006107ab6105f5565b82106107ec576040517f08c379a00000000000000000000000000000000000000000000000000000000081526004016107e390612dd6565b60405180910390fd5b60088281548110610800576107ff612df6565b5b90600052602060002001549050919050565b60008061081e8361105e565b9050600073ffffffffffffffffffffffffffffffffffffffff168173ffffffffffffffffffffffffffffffffffffffff160361088f576040517f08c379a000000000000000000000000000000000000000000000000000000000815260040161088690612e71565b60405180910390fd5b80915050919050565b60008073ffffffffffffffffffffffffffffffffffffffff168273ffffffffffffffffffffffffffffffffffffffff1603610908576040517f08c379a00000000000000000000000000000000000000000000000000000000081526004016108ff90612f03565b60405180910390fd5b600360008373ffffffffffffffffffffffffffffffffffffffff1673ffffffffffffffffffffffffffffffffffffffff168152602001908152602001600020549050919050565b60606001805461095e90612aeb565b80601f016020809104026020016040519081016040528092919081815260200182805461098a90612aeb565b80156109d75780601f106109ac576101008083540402835291602001916109d7565b820191906000526020600020905b8154815290600101906020018083116109ba57829003601f168201915b5050505050905090565b6109f36109ec610bf5565b838361109b565b5050565b610a08610a02610bf5565b83610cc4565b610a47576040517f08c379a0000000000000000000000000000000000000000000000000000000008152600401610a3e90612cb2565b60405180910390fd5b610a5384848484611207565b50505050565b6060610a6482611263565b9050919050565b6000610a77600b610cb6565b9050610a83600b611375565b610a8d838261138b565b610a9781836113a9565b505050565b6000600560008473ffffffffffffffffffffffffffffffffffffffff1673ffffffffffffffffffffffffffffffffffffffff16815260200190815260200160002060008373ffffffffffffffffffffffffffffffffffffffff1673ffffffffffffffffffffffffffffffffffffffff16815260200190815260200160002060009054906101000a900460ff16905092915050565b60007f780e9d63000000000000000000000000000000000000000000000000000000007bffffffffffffffffffffffffffffffffffffffffffffffffffffffff1916827bffffffffffffffffffffffffffffffffffffffffffffffffffffffff19161480610ba35750610ba282611416565b5b9050919050565b610bb3816114f8565b610bf2576040517f08c379a0000000000000000000000000000000000000000000000000000000008152600401610be990612e71565b60405180910390fd5b50565b600033905090565b816004600083815260200190815260200160002060006101000a81548173ffffffffffffffffffffffffffffffffffffffff021916908373ffffffffffffffffffffffffffffffffffffffff160217905550808273ffffffffffffffffffffffffffffffffffffffff16610c7083610812565b73ffffffffffffffffffffffffffffffffffffffff167f8c5be1e5ebec7d5bd14f71427d1e84f3dd0314c0f7b2291e5b200ac8c7c3b92560405160405180910390a45050565b600081600001549050919050565b600080610cd083610812565b90508073ffffffffffffffffffffffffffffffffffffffff168473ffffffffffffffffffffffffffffffffffffffff161480610d125750610d118185610a9c565b5b80610d5057508373ffffffffffffffffffffffffffffffffffffffff16610d3884610498565b73ffffffffffffffffffffffffffffffffffffffff16145b91505092915050565b8273ffffffffffffffffffffffffffffffffffffffff16610d7982610812565b73ffffffffffffffffffffffffffffffffffffffff1614610dcf576040517f08c379a0000000000000000000000000000000000000000000000000000000008152600401610dc690612f95565b60405180910390fd5b600073ffffffffffffffffffffffffffffffffffffffff168273ffffffffffffffffffffffffffffffffffffffff1603610e3e576040517f08c379a0000000000000000000000000000000000000000000000000000000008152600401610e3590613027565b60405180910390fd5b610e4b8383836001611539565b8273ffffffffffffffffffffffffffffffffffffffff16610e6b82610812565b73ffffffffffffffffffffffffffffffffffffffff1614610ec1576040517f08c379a0000000000000000000000000000000000000000000000000000000008152600401610eb890612f95565b60405180910390fd5b6004600082815260200190815260200160002060006101000a81549073ffffffffffffffffffffffffffffffffffffffff02191690556001600360008573ffffffffffffffffffffffffffffffffffffffff1673ffffffffffffffffffffffffffffffffffffffff168152602001908152602001600020600082825403925050819055506001600360008473ffffffffffffffffffffffffffffffffffffffff1673ffffffffffffffffffffffffffffffffffffffff16815260200190815260200160002060008282540192505081905550816002600083815260200190815260200160002060006101000a81548173ffffffffffffffffffffffffffffffffffffffff021916908373ffffffffffffffffffffffffffffffffffffffff160217905550808273ffffffffffffffffffffffffffffffffffffffff168473ffffffffffffffffffffffffffffffffffffffff167fddf252ad1be2c89b69c2b068fc378daa952ba7f163c4a11628f55a4df523b3ef60405160405180910390a461104d838383600161154b565b505050565b61105b81611551565b50565b60006002600083815260200190815260200160002060009054906101000a900473ffffffffffffffffffffffffffffffffffffffff169050919050565b8173ffffffffffffffffffffffffffffffffffffffff168373ffffffffffffffffffffffffffffffffffffffff1603611109576040517f08c379a000000000000000000000000000000000000000000000000000000000815260040161110090613093565b60405180910390fd5b80600560008573ffffffffffffffffffffffffffffffffffffffff1673ffffffffffffffffffffffffffffffffffffffff16815260200190815260200160002060008473ffffffffffffffffffffffffffffffffffffffff1673ffffffffffffffffffffffffffffffffffffffff16815260200190815260200160002060006101000a81548160ff0219169083151502179055508173ffffffffffffffffffffffffffffffffffffffff168373ffffffffffffffffffffffffffffffffffffffff167f17307eab39ab6107e8899845ad3d59bd9653f200f220920489ca2b5937696c31836040516111fa91906124b9565b60405180910390a3505050565b611212848484610d59565b61121e848484846115a4565b61125d576040517f08c379a000000000000000000000000000000000000000000000000000000000815260040161125490613125565b60405180910390fd5b50505050565b606061126e82610baa565b6000600a6000848152602001908152602001600020805461128e90612aeb565b80601f01602080910402602001604051908101604052809291908181526020018280546112ba90612aeb565b80156113075780601f106112dc57610100808354040283529160200191611307565b820191906000526020600020905b8154815290600101906020018083116112ea57829003601f168201915b50505050509050600061131861172b565b9050600081510361132d578192505050611370565b60008251111561136257808260405160200161134a929190613181565b60405160208183030381529060405292505050611370565b61136b84611742565b925050505b919050565b6001816000016000828254019250508190555050565b6113a58282604051806020016040528060008152506117aa565b5050565b6113b2826114f8565b6113f1576040517f08c379a00000000000000000000000000000000000000000000000000000000081526004016113e890613217565b60405180910390fd5b80600a6000848152602001908152602001600020908161141191906133e3565b505050565b60007f80ac58cd000000000000000000000000000000000000000000000000000000007bffffffffffffffffffffffffffffffffffffffffffffffffffffffff1916827bffffffffffffffffffffffffffffffffffffffffffffffffffffffff191614806114e157507f5b5e139f000000000000000000000000000000000000000000000000000000007bffffffffffffffffffffffffffffffffffffffffffffffffffffffff1916827bffffffffffffffffffffffffffffffffffffffffffffffffffffffff1916145b806114f157506114f082611805565b5b9050919050565b60008073ffffffffffffffffffffffffffffffffffffffff1661151a8361105e565b73ffffffffffffffffffffffffffffffffffffffff1614159050919050565b6115458484848461186f565b50505050565b50505050565b61155a816119cd565b6000600a6000838152602001908152602001600020805461157a90612aeb565b9050146115a157600a600082815260200190815260200160002060006115a091906123a8565b5b50565b60006115c58473ffffffffffffffffffffffffffffffffffffffff16611b1b565b1561171e578373ffffffffffffffffffffffffffffffffffffffff1663150b7a026115ee610bf5565b8786866040518563ffffffff1660e01b8152600401611610949392919061350a565b6020604051808303816000875af192505050801561164c57506040513d601f19601f82011682018060405250810190611649919061356b565b60015b6116ce573d806000811461167c576040519150601f19603f3d011682016040523d82523d6000602084013e611681565b606091505b5060008151036116c6576040517f08c379a00000000000000000000000000000000000000000000000000000000081526004016116bd90613125565b60405180910390fd5b805181602001fd5b63150b7a0260e01b7bffffffffffffffffffffffffffffffffffffffffffffffffffffffff1916817bffffffffffffffffffffffffffffffffffffffffffffffffffffffff191614915050611723565b600190505b949350505050565b606060405180602001604052806000815250905090565b606061174d82610baa565b600061175761172b565b9050600081511161177757604051806020016040528060008152506117a2565b8061178184611b3e565b604051602001611792929190613181565b6040516020818303038152906040525b915050919050565b6117b48383611c0c565b6117c160008484846115a4565b611800576040517f08c379a00000000000000000000000000000000000000000000000000000000081526004016117f790613125565b60405180910390fd5b505050565b60007f01ffc9a7000000000000000000000000000000000000000000000000000000007bffffffffffffffffffffffffffffffffffffffffffffffffffffffff1916827bffffffffffffffffffffffffffffffffffffffffffffffffffffffff1916149050919050565b61187b84848484611e29565b60018111156118bf576040517f08c379a00000000000000000000000000000000000000000000000000000000081526004016118b69061360a565b60405180910390fd5b6000829050600073ffffffffffffffffffffffffffffffffffffffff168573ffffffffffffffffffffffffffffffffffffffff16036119065761190181611f4f565b611945565b8373ffffffffffffffffffffffffffffffffffffffff168573ffffffffffffffffffffffffffffffffffffffff1614611944576119438582611f98565b5b5b600073ffffffffffffffffffffffffffffffffffffffff168473ffffffffffffffffffffffffffffffffffffffff16036119875761198281612105565b6119c6565b8473ffffffffffffffffffffffffffffffffffffffff168473ffffffffffffffffffffffffffffffffffffffff16146119c5576119c484826121d6565b5b5b5050505050565b60006119d882610812565b90506119e8816000846001611539565b6119f182610812565b90506004600083815260200190815260200160002060006101000a81549073ffffffffffffffffffffffffffffffffffffffff02191690556001600360008373ffffffffffffffffffffffffffffffffffffffff1673ffffffffffffffffffffffffffffffffffffffff168152602001908152602001600020600082825403925050819055506002600083815260200190815260200160002060006101000a81549073ffffffffffffffffffffffffffffffffffffffff021916905581600073ffffffffffffffffffffffffffffffffffffffff168273ffffffffffffffffffffffffffffffffffffffff167fddf252ad1be2c89b69c2b068fc378daa952ba7f163c4a11628f55a4df523b3ef60405160405180910390a4611b1781600084600161154b565b5050565b6000808273ffffffffffffffffffffffffffffffffffffffff163b119050919050565b606060006001611b4d84612255565b01905060008167ffffffffffffffff811115611b6c57611b6b6126e5565b5b6040519080825280601f01601f191660200182016040528015611b9e5781602001600182028036833780820191505090505b509050600082602001820190505b600115611c01578080600190039150507f3031323334353637383961626364656600000000000000000000000000000000600a86061a8153600a8581611bf557611bf461362a565b5b04945060008503611bac575b819350505050919050565b600073ffffffffffffffffffffffffffffffffffffffff168273ffffffffffffffffffffffffffffffffffffffff1603611c7b576040517f08c379a0000000000000000000000000000000000000000000000000000000008152600401611c72906136a5565b60405180910390fd5b611c84816114f8565b15611cc4576040517f08c379a0000000000000000000000000000000000000000000000000000000008152600401611cbb90613711565b60405180910390fd5b611cd2600083836001611539565b611cdb816114f8565b15611d1b576040517f08c379a0000000000000000000000000000000000000000000000000000000008152600401611d1290613711565b60405180910390fd5b6001600360008473ffffffffffffffffffffffffffffffffffffffff1673ffffffffffffffffffffffffffffffffffffffff16815260200190815260200160002060008282540192505081905550816002600083815260200190815260200160002060006101000a81548173ffffffffffffffffffffffffffffffffffffffff021916908373ffffffffffffffffffffffffffffffffffffffff160217905550808273ffffffffffffffffffffffffffffffffffffffff16600073ffffffffffffffffffffffffffffffffffffffff167fddf252ad1be2c89b69c2b068fc378daa952ba7f163c4a11628f55a4df523b3ef60405160405180910390a4611e2560008383600161154b565b5050565b6001811115611f4957600073ffffffffffffffffffffffffffffffffffffffff168473ffffffffffffffffffffffffffffffffffffffff1614611ebd5780600360008673ffffffffffffffffffffffffffffffffffffffff1673ffffffffffffffffffffffffffffffffffffffff1681526020019081526020016000206000828254611eb59190613760565b925050819055505b600073ffffffffffffffffffffffffffffffffffffffff168373ffffffffffffffffffffffffffffffffffffffff1614611f485780600360008573ffffffffffffffffffffffffffffffffffffffff1673ffffffffffffffffffffffffffffffffffffffff1681526020019081526020016000206000828254611f409190613794565b925050819055505b5b50505050565b6008805490506009600083815260200190815260200160002081905550600881908060018154018082558091505060019003906000526020600020016000909190919091505550565b60006001611fa584610898565b611faf9190613760565b9050600060076000848152602001908152602001600020549050818114612094576000600660008673ffffffffffffffffffffffffffffffffffffffff1673ffffffffffffffffffffffffffffffffffffffff168152602001908152602001600020600084815260200190815260200160002054905080600660008773ffffffffffffffffffffffffffffffffffffffff1673ffffffffffffffffffffffffffffffffffffffff168152602001908152602001600020600084815260200190815260200160002081905550816007600083815260200190815260200160002081905550505b6007600084815260200190815260200160002060009055600660008573ffffffffffffffffffffffffffffffffffffffff1673ffffffffffffffffffffffffffffffffffffffff16815260200190815260200160002060008381526020019081526020016000206000905550505050565b600060016008805490506121199190613760565b905060006009600084815260200190815260200160002054905060006008838154811061214957612148612df6565b5b90600052602060002001549050806008838154811061216b5761216a612df6565b5b9060005260206000200181905550816009600083815260200190815260200160002081905550600960008581526020019081526020016000206000905560088054806121ba576121b96137c8565b5b6001900381819060005260206000200160009055905550505050565b60006121e183610898565b905081600660008573ffffffffffffffffffffffffffffffffffffffff1673ffffffffffffffffffffffffffffffffffffffff168152602001908152602001600020600083815260200190815260200160002081905550806007600084815260200190815260200160002081905550505050565b600080600090507a184f03e93ff9f4daa797ed6e38ed64bf6a1f01000000000000000083106122b3577a184f03e93ff9f4daa797ed6e38ed64bf6a1f01000000000000000083816122a9576122a861362a565b5b0492506040810190505b6d04ee2d6d415b85acef810000000083106122f0576d04ee2d6d415b85acef810000000083816122e6576122e561362a565b5b0492506020810190505b662386f26fc10000831061231f57662386f26fc1000083816123155761231461362a565b5b0492506010810190505b6305f5e1008310612348576305f5e100838161233e5761233d61362a565b5b0492506008810190505b612710831061236d5761271083816123635761236261362a565b5b0492506004810190505b6064831061239057606483816123865761238561362a565b5b0492506002810190505b600a831061239f576001810190505b80915050919050565b5080546123b490612aeb565b6000825580601f106123c657506123e5565b601f0160209004906000526020600020908101906123e491906123e8565b5b50565b5b808211156124015760008160009055506001016123e9565b5090565b6000604051905090565b600080fd5b600080fd5b60007fffffffff0000000000000000000000000000000000000000000000000000000082169050919050565b61244e81612419565b811461245957600080fd5b50565b60008135905061246b81612445565b92915050565b6000602082840312156124875761248661240f565b5b60006124958482850161245c565b91505092915050565b60008115159050919050565b6124b38161249e565b82525050565b60006020820190506124ce60008301846124aa565b92915050565b600081519050919050565b600082825260208201905092915050565b60005b8381101561250e5780820151818401526020810190506124f3565b60008484015250505050565b6000601f19601f8301169050919050565b6000612536826124d4565b61254081856124df565b93506125508185602086016124f0565b6125598161251a565b840191505092915050565b6000602082019050818103600083015261257e818461252b565b905092915050565b6000819050919050565b61259981612586565b81146125a457600080fd5b50565b6000813590506125b681612590565b92915050565b6000602082840312156125d2576125d161240f565b5b60006125e0848285016125a7565b91505092915050565b600073ffffffffffffffffffffffffffffffffffffffff82169050919050565b6000612614826125e9565b9050919050565b61262481612609565b82525050565b600060208201905061263f600083018461261b565b92915050565b61264e81612609565b811461265957600080fd5b50565b60008135905061266b81612645565b92915050565b600080604083850312156126885761268761240f565b5b60006126968582860161265c565b92505060206126a7858286016125a7565b9150509250929050565b6126ba81612586565b82525050565b60006020820190506126d560008301846126b1565b92915050565b600080fd5b600080fd5b7f4e487b7100000000000000000000000000000000000000000000000000000000600052604160045260246000fd5b61271d8261251a565b810181811067ffffffffffffffff8211171561273c5761273b6126e5565b5b80604052505050565b600061274f612405565b905061275b8282612714565b919050565b600067ffffffffffffffff82111561277b5761277a6126e5565b5b6127848261251a565b9050602081019050919050565b82818337600083830152505050565b60006127b36127ae84612760565b612745565b9050828152602081018484840111156127cf576127ce6126e0565b5b6127da848285612791565b509392505050565b600082601f8301126127f7576127f66126db565b5b81356128078482602086016127a0565b91505092915050565b600080604083850312156128275761282661240f565b5b60006128358582860161265c565b925050602083013567ffffffffffffffff81111561285657612855612414565b5b612862858286016127e2565b9150509250929050565b6000806000606084860312156128855761288461240f565b5b60006128938682870161265c565b93505060206128a48682870161265c565b92505060406128b5868287016125a7565b9150509250925092565b6000602082840312156128d5576128d461240f565b5b60006128e38482850161265c565b91505092915050565b6128f58161249e565b811461290057600080fd5b50565b600081359050612912816128ec565b92915050565b6000806040838503121561292f5761292e61240f565b5b600061293d8582860161265c565b925050602061294e85828601612903565b9150509250929050565b600067ffffffffffffffff821115612973576129726126e5565b5b61297c8261251a565b9050602081019050919050565b600061299c61299784612958565b612745565b9050828152602081018484840111156129b8576129b76126e0565b5b6129c3848285612791565b509392505050565b600082601f8301126129e0576129df6126db565b5b81356129f0848260208601612989565b91505092915050565b60008060008060808587031215612a1357612a1261240f565b5b6000612a218782880161265c565b9450506020612a328782880161265c565b9350506040612a43878288016125a7565b925050606085013567ffffffffffffffff811115612a6457612a63612414565b5b612a70878288016129cb565b91505092959194509250565b60008060408385031215612a9357612a9261240f565b5b6000612aa18582860161265c565b9250506020612ab28582860161265c565b9150509250929050565b7f4e487b7100000000000000000000000000000000000000000000000000000000600052602260045260246000fd5b60006002820490506001821680612b0357607f821691505b602082108103612b1657612b15612abc565b5b50919050565b7f4552433732313a20617070726f76616c20746f2063757272656e74206f776e6560008201527f7200000000000000000000000000000000000000000000000000000000000000602082015250565b6000612b786021836124df565b9150612b8382612b1c565b604082019050919050565b60006020820190508181036000830152612ba781612b6b565b9050919050565b7f4552433732313a20617070726f76652063616c6c6572206973206e6f7420746f60008201527f6b656e206f776e6572206f7220617070726f76656420666f7220616c6c000000602082015250565b6000612c0a603d836124df565b9150612c1582612bae565b604082019050919050565b60006020820190508181036000830152612c3981612bfd565b9050919050565b7f4552433732313a2063616c6c6572206973206e6f7420746f6b656e206f776e6560008201527f72206f7220617070726f76656400000000000000000000000000000000000000602082015250565b6000612c9c602d836124df565b9150612ca782612c40565b604082019050919050565b60006020820190508181036000830152612ccb81612c8f565b9050919050565b7f455243373231456e756d657261626c653a206f776e657220696e646578206f7560008201527f74206f6620626f756e6473000000000000000000000000000000000000000000602082015250565b6000612d2e602b836124df565b9150612d3982612cd2565b604082019050919050565b60006020820190508181036000830152612d5d81612d21565b9050919050565b7f455243373231456e756d657261626c653a20676c6f62616c20696e646578206f60008201527f7574206f6620626f756e64730000000000000000000000000000000000000000602082015250565b6000612dc0602c836124df565b9150612dcb82612d64565b604082019050919050565b60006020820190508181036000830152612def81612db3565b9050919050565b7f4e487b7100000000000000000000000000000000000000000000000000000000600052603260045260246000fd5b7f4552433732313a20696e76616c696420746f6b656e2049440000000000000000600082015250565b6000612e5b6018836124df565b9150612e6682612e25565b602082019050919050565b60006020820190508181036000830152612e8a81612e4e565b9050919050565b7f4552433732313a2061646472657373207a65726f206973206e6f74206120766160008201527f6c6964206f776e65720000000000000000000000000000000000000000000000602082015250565b6000612eed6029836124df565b9150612ef882612e91565b604082019050919050565b60006020820190508181036000830152612f1c81612ee0565b9050919050565b7f4552433732313a207472616e736665722066726f6d20696e636f72726563742060008201527f6f776e6572000000000000000000000000000000000000000000000000000000602082015250565b6000612f7f6025836124df565b9150612f8a82612f23565b604082019050919050565b60006020820190508181036000830152612fae81612f72565b9050919050565b7f4552433732313a207472616e7366657220746f20746865207a65726f2061646460008201527f7265737300000000000000000000000000000000000000000000000000000000602082015250565b60006130116024836124df565b915061301c82612fb5565b604082019050919050565b6000602082019050818103600083015261304081613004565b9050919050565b7f4552433732313a20617070726f766520746f2063616c6c657200000000000000600082015250565b600061307d6019836124df565b915061308882613047565b602082019050919050565b600060208201905081810360008301526130ac81613070565b9050919050565b7f4552433732313a207472616e7366657220746f206e6f6e20455243373231526560008201527f63656976657220696d706c656d656e7465720000000000000000000000000000602082015250565b600061310f6032836124df565b915061311a826130b3565b604082019050919050565b6000602082019050818103600083015261313e81613102565b9050919050565b600081905092915050565b600061315b826124d4565b6131658185613145565b93506131758185602086016124f0565b80840191505092915050565b600061318d8285613150565b91506131998284613150565b91508190509392505050565b7f45524337323155524953746f726167653a2055524920736574206f66206e6f6e60008201527f6578697374656e7420746f6b656e000000000000000000000000000000000000602082015250565b6000613201602e836124df565b915061320c826131a5565b604082019050919050565b60006020820190508181036000830152613230816131f4565b9050919050565b60008190508160005260206000209050919050565b60006020601f8301049050919050565b600082821b905092915050565b6000600883026132997fffffffffffffffffffffffffffffffffffffffffffffffffffffffffffffffff8261325c565b6132a3868361325c565b95508019841693508086168417925050509392505050565b6000819050919050565b60006132e06132db6132d684612586565b6132bb565b612586565b9050919050565b6000819050919050565b6132fa836132c5565b61330e613306826132e7565b848454613269565b825550505050565b600090565b613323613316565b61332e8184846132f1565b505050565b5b818110156133525761334760008261331b565b600181019050613334565b5050565b601f8211156133975761336881613237565b6133718461324c565b81016020851015613380578190505b61339461338c8561324c565b830182613333565b50505b505050565b600082821c905092915050565b60006133ba6000198460080261339c565b1980831691505092915050565b60006133d383836133a9565b9150826002028217905092915050565b6133ec826124d4565b67ffffffffffffffff811115613405576134046126e5565b5b61340f8254612aeb565b61341a828285613356565b600060209050601f83116001811461344d576000841561343b578287015190505b61344585826133c7565b8655506134ad565b601f19841661345b86613237565b60005b828110156134835784890151825560018201915060208501945060208101905061345e565b868310156134a0578489015161349c601f8916826133a9565b8355505b6001600288020188555050505b505050505050565b600081519050919050565b600082825260208201905092915050565b60006134dc826134b5565b6134e681856134c0565b93506134f68185602086016124f0565b6134ff8161251a565b840191505092915050565b600060808201905061351f600083018761261b565b61352c602083018661261b565b61353960408301856126b1565b818103606083015261354b81846134d1565b905095945050505050565b60008151905061356581612445565b92915050565b6000602082840312156135815761358061240f565b5b600061358f84828501613556565b91505092915050565b7f455243373231456e756d657261626c653a20636f6e736563757469766520747260008201527f616e7366657273206e6f7420737570706f727465640000000000000000000000602082015250565b60006135f46035836124df565b91506135ff82613598565b604082019050919050565b60006020820190508181036000830152613623816135e7565b9050919050565b7f4e487b7100000000000000000000000000000000000000000000000000000000600052601260045260246000fd5b7f4552433732313a206d696e7420746f20746865207a65726f2061646472657373600082015250565b600061368f6020836124df565b915061369a82613659565b602082019050919050565b600060208201905081810360008301526136be81613682565b9050919050565b7f4552433732313a20746f6b656e20616c7265616479206d696e74656400000000600082015250565b60006136fb601c836124df565b9150613706826136c5565b602082019050919050565b6000602082019050818103600083015261372a816136ee565b9050919050565b7f4e487b7100000000000000000000000000000000000000000000000000000000600052601160045260246000fd5b600061376b82612586565b915061377683612586565b925082820390508181111561378e5761378d613731565b5b92915050565b600061379f82612586565b91506137aa83612586565b92508282019050808211156137c2576137c1613731565b5b92915050565b7f4e487b7100000000000000000000000000000000000000000000000000000000600052603160045260246000fdfea2646970667358221220d9463f6cbb2f22b4f3e1835ded920711e6a39a9a961c92ff7bea44a507124cad64736f6c63430008110033",
  "devdoc": {
    "kind": "dev",
    "methods": {
      "approve(address,uint256)": {
        "details": "See {IERC721-approve}."
      },
      "balanceOf(address)": {
        "details": "See {IERC721-balanceOf}."
      },
      "burn(uint256)": {
        "details": "Burns `tokenId`. See {ERC721-_burn}. Requirements: - The caller must own `tokenId` or be an approved operator."
      },
      "getApproved(uint256)": {
        "details": "See {IERC721-getApproved}."
      },
      "isApprovedForAll(address,address)": {
        "details": "See {IERC721-isApprovedForAll}."
      },
      "name()": {
        "details": "See {IERC721Metadata-name}."
      },
      "ownerOf(uint256)": {
        "details": "See {IERC721-ownerOf}."
      },
      "safeTransferFrom(address,address,uint256)": {
        "details": "See {IERC721-safeTransferFrom}."
      },
      "safeTransferFrom(address,address,uint256,bytes)": {
        "details": "See {IERC721-safeTransferFrom}."
      },
      "setApprovalForAll(address,bool)": {
        "details": "See {IERC721-setApprovalForAll}."
      },
      "symbol()": {
        "details": "See {IERC721Metadata-symbol}."
      },
      "tokenByIndex(uint256)": {
        "details": "See {IERC721Enumerable-tokenByIndex}."
      },
      "tokenOfOwnerByIndex(address,uint256)": {
        "details": "See {IERC721Enumerable-tokenOfOwnerByIndex}."
      },
      "totalSupply()": {
        "details": "See {IERC721Enumerable-totalSupply}."
      },
      "transferFrom(address,address,uint256)": {
        "details": "See {IERC721-transferFrom}."
      }
    },
    "version": 1
  },
  "userdoc": {
    "kind": "user",
    "methods": {},
    "version": 1
  },
  "storageLayout": {
    "storage": [
      {
        "astId": 25,
        "contract": "contracts/nfts/CertificateNFT.sol:CertificateNFT",
        "label": "_name",
        "offset": 0,
        "slot": "0",
        "type": "t_string_storage"
      },
      {
        "astId": 27,
        "contract": "contracts/nfts/CertificateNFT.sol:CertificateNFT",
        "label": "_symbol",
        "offset": 0,
        "slot": "1",
        "type": "t_string_storage"
      },
      {
        "astId": 31,
        "contract": "contracts/nfts/CertificateNFT.sol:CertificateNFT",
        "label": "_owners",
        "offset": 0,
        "slot": "2",
        "type": "t_mapping(t_uint256,t_address)"
      },
      {
        "astId": 35,
        "contract": "contracts/nfts/CertificateNFT.sol:CertificateNFT",
        "label": "_balances",
        "offset": 0,
        "slot": "3",
        "type": "t_mapping(t_address,t_uint256)"
      },
      {
        "astId": 39,
        "contract": "contracts/nfts/CertificateNFT.sol:CertificateNFT",
        "label": "_tokenApprovals",
        "offset": 0,
        "slot": "4",
        "type": "t_mapping(t_uint256,t_address)"
      },
      {
        "astId": 45,
        "contract": "contracts/nfts/CertificateNFT.sol:CertificateNFT",
        "label": "_operatorApprovals",
        "offset": 0,
        "slot": "5",
        "type": "t_mapping(t_address,t_mapping(t_address,t_bool))"
      },
      {
        "astId": 1123,
        "contract": "contracts/nfts/CertificateNFT.sol:CertificateNFT",
        "label": "_ownedTokens",
        "offset": 0,
        "slot": "6",
        "type": "t_mapping(t_address,t_mapping(t_uint256,t_uint256))"
      },
      {
        "astId": 1127,
        "contract": "contracts/nfts/CertificateNFT.sol:CertificateNFT",
        "label": "_ownedTokensIndex",
        "offset": 0,
        "slot": "7",
        "type": "t_mapping(t_uint256,t_uint256)"
      },
      {
        "astId": 1130,
        "contract": "contracts/nfts/CertificateNFT.sol:CertificateNFT",
        "label": "_allTokens",
        "offset": 0,
        "slot": "8",
        "type": "t_array(t_uint256)dyn_storage"
      },
      {
        "astId": 1134,
        "contract": "contracts/nfts/CertificateNFT.sol:CertificateNFT",
        "label": "_allTokensIndex",
        "offset": 0,
        "slot": "9",
        "type": "t_mapping(t_uint256,t_uint256)"
      },
      {
        "astId": 1475,
        "contract": "contracts/nfts/CertificateNFT.sol:CertificateNFT",
        "label": "_tokenURIs",
        "offset": 0,
        "slot": "10",
        "type": "t_mapping(t_uint256,t_string_storage)"
      },
      {
        "astId": 5833,
        "contract": "contracts/nfts/CertificateNFT.sol:CertificateNFT",
        "label": "_tokenIdCounter",
        "offset": 0,
        "slot": "11",
        "type": "t_struct(Counter)2003_storage"
      }
    ],
    "types": {
      "t_address": {
        "encoding": "inplace",
        "label": "address",
        "numberOfBytes": "20"
      },
      "t_array(t_uint256)dyn_storage": {
        "base": "t_uint256",
        "encoding": "dynamic_array",
        "label": "uint256[]",
        "numberOfBytes": "32"
      },
      "t_bool": {
        "encoding": "inplace",
        "label": "bool",
        "numberOfBytes": "1"
      },
      "t_mapping(t_address,t_bool)": {
        "encoding": "mapping",
        "key": "t_address",
        "label": "mapping(address => bool)",
        "numberOfBytes": "32",
        "value": "t_bool"
      },
      "t_mapping(t_address,t_mapping(t_address,t_bool))": {
        "encoding": "mapping",
        "key": "t_address",
        "label": "mapping(address => mapping(address => bool))",
        "numberOfBytes": "32",
        "value": "t_mapping(t_address,t_bool)"
      },
      "t_mapping(t_address,t_mapping(t_uint256,t_uint256))": {
        "encoding": "mapping",
        "key": "t_address",
        "label": "mapping(address => mapping(uint256 => uint256))",
        "numberOfBytes": "32",
        "value": "t_mapping(t_uint256,t_uint256)"
      },
      "t_mapping(t_address,t_uint256)": {
        "encoding": "mapping",
        "key": "t_address",
        "label": "mapping(address => uint256)",
        "numberOfBytes": "32",
        "value": "t_uint256"
      },
      "t_mapping(t_uint256,t_address)": {
        "encoding": "mapping",
        "key": "t_uint256",
        "label": "mapping(uint256 => address)",
        "numberOfBytes": "32",
        "value": "t_address"
      },
      "t_mapping(t_uint256,t_string_storage)": {
        "encoding": "mapping",
        "key": "t_uint256",
        "label": "mapping(uint256 => string)",
        "numberOfBytes": "32",
        "value": "t_string_storage"
      },
      "t_mapping(t_uint256,t_uint256)": {
        "encoding": "mapping",
        "key": "t_uint256",
        "label": "mapping(uint256 => uint256)",
        "numberOfBytes": "32",
        "value": "t_uint256"
      },
      "t_string_storage": {
        "encoding": "bytes",
        "label": "string",
        "numberOfBytes": "32"
      },
      "t_struct(Counter)2003_storage": {
        "encoding": "inplace",
        "label": "struct Counters.Counter",
        "members": [
          {
            "astId": 2002,
            "contract": "contracts/nfts/CertificateNFT.sol:CertificateNFT",
            "label": "_value",
            "offset": 0,
            "slot": "0",
            "type": "t_uint256"
          }
        ],
        "numberOfBytes": "32"
      },
      "t_uint256": {
        "encoding": "inplace",
        "label": "uint256",
        "numberOfBytes": "32"
      }
    }
  }
}